:0600000002008B020D4816
:01000B0032C2
:0300130002117760
:01001B0032B2
:0100230032AA
:01002B0032A2
:01003300329A
:01003B003292
:01004300328A
:01004B003282
:01005300327A
:01005B003272
:01006300326A
:01006B003262
:01007300325A
:01007B003252
:03008300020DFD6E
:0300FA000200867B
:0500860012013980FEAB
:1000FD005380BF9000641201F59013D975F08012F2
:10010D00032490000BE4F5F01203E29013E275F076
:10011D008012032490DF05E0F58212036212022D96
:10012D0012022D4380409000640201F51201C212AB
:10013D0001E143FD401211C0758202120BF4D2AFE2
:10014D001202251200FD12021C120304120E6A8007
:10015D00F8AA82E4B50902800E7401B50902802B5C
:10016D007402B5094F80419013EE75F080C00212F4
:10017D0003248508821203629013F575F080120333
:10018D0024D0028A8212036202022DA80AAA0B8AC7
:10019D00031AEB6010868208C002C00012022AD03A
:1001AD0000D00280EA02022DA80AE660045380BF47
:0501BD002243804022F6
:1013D90050696E6B4F5320720020616464726573AB
:1013E900732030780041434B203078002066726FBB
:0513F9006D20307800BA
:1001C200539ADFA2AFE433F452A82274FC55C9F566
:1001D200F0740345F0F5C953C9FB43C90880FE53C7
:1001E200BEFBE5BE30E6FB53C6B8E5C620E6FB43E0
:1001F200BE0422AA82AB831ABAFF011BC3E49A741B
:10020200808BF063F08095F0500F7CB07D041CBCB5
:0A021200FF011DEC4D70F780DE22A5
:0A00E400754300754400C201C2021A
:10021C009013FE75F080020324D2030202390211FE
:10022C00DE75820D12022A75820A02022AA203923C
:10023C0000300306754200C20122C20222AA82AB20
:10024C0083ACF030020F8A828B838CF0E543121260
:10025C00E6C202D322C322300004A201B322D3226D
:10026C00E544FA24FB4042EA2A2A90027A730202FD
:10027C00B50202890202960202A30202917582075C
:10028C0012022A802412022D801FE542142422F827
:10029C00868212022A801275820812022A75822026
:1002AC0012022A75820812022A75440022AA8220A0
:1002BC000006D2028A43803D30010122BA08028036
:1002CC0011BA0D028005BA7F148007D2017544045F
:1002DC008023E542601F1542754403801874E125A4
:1002EC0042400F754402AB420542EB2422F8A602B1
:1002FC00800375440102026C30001C300119E54288
:10030C00600DE5422422F8760075822212081F75D2
:10031C00420012021CC20122AA82AB83ACF08A8278
:10032C008B838CF01213B9FD60188D820ABA000110
:10033C000BC002C003C00412022AD004D003D002A6
:10034C0080DC22AA82BA0A00500674302AF5822276
:10035C0074372AF58222AA8274F05AC4540FF5829B
:10036C00C00212034F12022AD002740F5AF58212E5
:10037C00034F02022AAA82AB838B058D82C002C076
:10038C0003120362D003D0028A82020362AA82ABF8
:10039C0083ACF0FD8B078C008D018982C002C003F9
:1003AC00C004C005120362D005D0048C008882C042
:1003BC0004C005120362D005D004D0038B078F82D2
:1003CC00C003C004C005120362D005D004D003D012
:1003DC00028A8202036285824585834685F047F551
:1003EC0048D2047E007FCA789A793BBE010CBF00CC
:1003FC0009B80006B900030204B98E738F748875AE
:10040C0089768545828546838547F0E548C006C0D8
:10041C0007C000C00112126DAA82AB83ACF0FDD0F4
:10042C0001D000D007D006EA4B4C4D6002C204202C
:10043C00042C8E738F7488758976854582854683E6
:10044C008547F0E548C006C007C000C00112126D18
:10045C0012034F12022AD001D000D007D0068E739F
:10046C008F74887589768545828546838547F0E546
:10047C0048C006C007C000C0011211EA858245853C
:10048C00834685F047F548D001D000D007D00675DB
:10049C00730AE4F574F575F5768E828F8388F0E92E
:1004AC0012126DAE82AF83A8F0F90203F785458274
:1004BC0012034F02022AAA82758262C00212022A19
:1004CC00D002EA30E70C758231C00212022AD00247
:1004DC00800A758230C00212022AD002EA30E60C81
:1004EC00758231C00212022AD002800A758230C095
:1004FC000212022AD002EA30E50C758231C00212D7
:10050C00022AD002800A758230C00212022AD0025E
:10051C00EA30E40C758231C00212022AD002800A41
:10052C00758230C00212022AD002EA30E30C7582C6
:10053C0031C00212022AD002800A758230C0021227
:10054C00022AD002EA30E20C758231C00212022A71
:10055C00D002800A758230C00212022AD002EA3020
:10056C00E10C758231C00212022AD002800A758217
:10057C0030C00212022AD002EA30E0067582310243
:08058C00022A75823002022AE6
:0213FE003E00AF
:0300EE0075110089
:100594000201CD1511E51124FC5055AA107B007CF5
:1005A400408A828B838CF01213A1AA82850F82C0A9
:1005B40002120AE5AB82D0028B828A1C1210E8AACE
:1005C400828A00A910E7600DE510F904F51087028E
:1005D400A6020880EE850D82120AE5AA82850E82A3
:1005E400C002120AE5AB82D0028B1D8A8202110D71
:1005F4002215117402B51125751C017582021210A1
:10060400E8A882850E82C000120AE5AA82D000A65C
:1006140002850D82120AE5751D8002110D22151145
:100624007401B51115751C007582031210E8850D4F
:1006340082120AE5751D8002110D2215117404B58C
:100644001141751C0A7582041210E8A882850E8275
:10065400C000120AE5AA82D000A60208850F82C053
:1006640000120AE5AA82D000A602E804F549851022
:1006740082754A08120A5F850D82120AE5751D000B
:1006840002110D2215117401B51102800122850D8C
:1006940082120AE57512F07513F07514F07515F0F1
:1006A40075160F75170F75180F75190F7A00BA089C
:1006B4000050657B00BB1000505B751C0A758204FA
:1006C400C002C0031210E8A882D003D002EBC40316
:1006D40054F8F608A60208AC12A60408AC13A60443
:1006E40008AC14A60408AC15A60408AC16A60408A5
:1006F400AC17A60408AC18A60408AC19A604850D0A
:1007040082C002C003120AE5751D0012110DD00348
:10071400D0020B80A00A809622E51124FE50258584
:100724000D82120AE5AA82AB83BA0005BB000280DF
:1007340008BA010DBB000A8004438040225380BFE5
:100744002263804022151174FF2511400122850D7A
:1007540082120AE5AA82AB837401B5110280077480
:1007640002B51152803875822AC002C00312022ACF
:10077400D003D0028A828B83C002C0031203817526
:10078400823D12022AD003D0028A828B83E0F58252
:10079400C002C00312036212022DD003D002850EE0
:1007A40082C002C003120AE5AC82AD83D003D0023A
:1007B4008A828B83ECF0227401B5110280077402E3
:1007C400B51157803D850D82120AE5AA82AB838A52
:1007D400048B05EA4B602A8C1A75822AC004C00572
:1007E40012022AD005D0048C828D83120381758273
:1007F4003D12022AA81AE2F58212036212022D8027
:100804000122850E82120AE5AA82AB838A048B0533
:10081400EA4B60068C1BA81BECF222AA827511011C
:100824008A0C8A00860208EAFB601A74FB251140D0
:1008340014BB20F0E814F97700AA110511EA240C7E
:10084400F9A70080DFAA0C7B007C407573007574E7
:10085400147575808A828B838CF012131CAA82AB68
:1008640083BA0005BB000280030208DF90140575FB
:10087400F08012032490000BE4F5F01203E29014CC
:100884000E75F08012032490DF05E0F582120362F6
:1008940012022D90141A75F08012032412022D9066
:1008A400143975F08012032412022D90143F75F050
:1008B4008012032412022D90145D75F0801203241B
:1008C40012022D90146875F08012032412022D90E8
:1008D400148675F08012032402022DAA0C7B007C7E
:1008E400407573397574147575808A828B838CF0A6
:1008F40012131CAA82AB83BA0006BB000302059440
:10090400AA0C7B007C4075739C7574147575808A81
:10091400828B838CF012131CAA82AB83BA0006BBB1
:10092400000302071DAA0C7B007C407573A075743C
:10093400147575808A828B838CF012131CAA82AB87
:1009440083BA0006BB0003020749AA0C7B007C4063
:100954007573A67574147575808A828B838CF012F6
:10096400131CAA82AB83BA0006BB00030207BBAA0E
:100974000C7B007C407573AC7574147575808A8229
:100984008B838CF012131CAA82AB83BA0006BB00C3
:1009940003020597AA0C7B007C407573AF75741431
:1009A4007575808A828B838CF012131CAA82AB83A8
:1009B400BA0006BB00030205F5AA0C7B007C407557
:1009C40073B77574147575808A828B838CF01213D7
:1009D4001CAA82AB83BA0006BB0003020622AA0C3F
:1009E4007B007C407573BF7574147575808A828B27
:1009F400838CF012131CAA82AB83BA0006BB0003DB
:100A040002063FAA0C7B007C407573C7757414758D
:100A140075808A828B838CF012131CAA82AB83BAF2
:090A24000006BB00030206882253
:1014000068656C700050696E6B4F532072002061EC
:10141000646472657373203078004A6F6279205477
:101420006166666579203C6A727440686F646765BE
:101430007069672E6F72673E007265736574003C59
:1014400078646174617C70646174613E203C6164A5
:10145000647231363E205B76616C385D006C656489
:10146000203C626F6F6C3E007478203C647374386B
:101470003E203C736571383E203C747970383E20C4
:101480003C7374723E0074656C656C6564203C64EA
:101490007374383E203C626F6F6C3E006C65640074
:1014A00078646174610070646174610074780074C0
:1014B000656C656C656400676678696E6974006761
:0F14C0006678706C6F740067667874657374007B
:100A2D00AA82C3EA648094E140047B57801EC3EA26
:100A3D00648094C140047B378012C374B98AF0631B
:100A4D00F08095F040047B3080027B00EAC39BF57B
:100A5D00822285824B7B007C00A84B860508ED60C9
:100A6D00050C8C0380F5ECFB20E00AECC313FCC3F2
:100A7D00E54A9C5004758200227D00C3ED9B5055C4
:100A8D00EDC3132549F8ED254BF98782C003C0044A
:100A9D00C005C000120A2DAE82D000D005D004D002
:100AAD0003EEC454F0FE8D077A000FBF00010AEF6C
:100ABD00254BF98782C003C004C005C006C00012D3
:100ACD000A2DAA82D000D006D005D004D003EA4E5C
:100ADD00F60D0D80A68C822285824C754D0A7551BE
:100AED00007D00A84C860608EE60050D8D5180F541
:100AFD008D517E007F00BD0200E433F550BD030033
:100B0D00E433FD754E00C3E54E95514003020BC213
:100B1D00E54E254CF88603EE4F7043E54E600574A7
:100B2D0001B54E11BB620EE55060049000002275B8
:100B3D004D02020BBDE54E7011BB680EE550600411
:100B4D0090000022754D10020BBD7401B54E0FBB08
:100B5D00780CED600490000022754D1080528B8250
:100B6D00C005C006C007120A2D85824FD007D006DA
:100B7D00D005C3E54F6480854DF063F08095F0504E
:100B8D002BC005E54DF5733395E0F5748E828F839B
:100B9D00C0051212FFAB82AA83D005E54FFD339538
:100BAD00E0FCED2BFEEC3AFFD00580049000002216
:0A0BBD00054E020B138E828F832277
:0900F100757200C205C206C207C7
:100BC70075825222AA827BFF90DF3BE0FCB50202CE
:100BD7008014EB6011900001C002C0031201F5D030
:100BE70003D0021B80E2EB7002C322D322AA8290B9
:100BF700DF0074D3F090DF017491F090DF0274FF8F
:100C0700F090DF037404F090DF047405F090DF05C3
:100C1700E4F090DF06F090DF07740CF090DF08E453
:100C2700F090DF097421F090DF0A7465F090DF0B14
:100C3700746AF090DF0C742DF090DF0D743BF09028
:100C4700DF0E7413F090DF0F7422F090DF1074F84A
:100C5700F090DF117462F090DF127407F090DF13E9
:100C67007430F090DF147418F090DF15741DF09055
:100C7700DF16741CF090DF1774C7F090DF18E4F0EC
:100C870090DF1974B0F090DF1A74B6F090DF1B7420
:100C970010F090DF1C74EAF090DF1D742AF090DFEB
:100CA7001EE4F090DF1F741FF090DF237488F0902C
:100CB700DF247431F090DF257409F090DF27E4F02A
:100CC70090DF28F090DF29F090DF2AF090DF2BE407
:100CD700F090DF2CF090DF2DF090DF2E7450F09025
:100CE700DF2FE4F090DF30F090DF31F090DF3674E3
:100CF70001F090DF377403F090DF38E4F090DF39CC
:100D0700F090DF3A7480F090DF3B7401F090DF3CA5
:100D1700E4F090DF3D7494F090DF2E74C2F090DF22
:100D270003E04402F090DF05EAF075E900439A0119
:100D3700D2A84391F175E104758201120BCB020E23
:100D4700D0C0E0C0F0C082C083C002C003C004C0EE
:100D570005C000C0D075D00090DF3BE0FABA132C75
:100D6700AA527B000ABA00010BAC727D00C3EC9A51
:100D7700ED64808BF063F08095F0500CAA720572D9
:100D8700EA2452F886D98059D205805590DF3BE096
:100D9700FABA0D4DE5726022AA527B000ABA000129
:100DA7000BAC727D00C3EC9AED64808BF063F0802E
:100DB70095F0501274E02572400CAA720572EA246D
:100DC70052F8A6D9801BAA527B000ABA00010BACC5
:100DD700727D00ECB50208EDB50304D2078002D29C
:100DE70005D0D0D000D005D004D003D002D083D016
:100DF70082D0F0D0E032C0E0C002C003C004C0051A
:100E0700C0D075D000539BFCE5E930E427AA527B9C
:100E1700000ABA00010BAC727D00ECB5020EEDB50D
:100E2700030A75E104757200D207800875E104753D
:100E37007200D205E5E920E70AE5E920E605E5E9DC
:100E470030E50875E104757200D205E5E930E00385
:100E570075720075E900D0D0D005D004D003D00258
:100E6700D0E032300625300503020ED0300734902B
:100E7700DF39E0FA30E70512116E800C9014CF7558
:100E8700F08012032412022D020ED030050F9014A9
:100E9700DA75F08012032412022D120ED0300703E8
:100EA700020ED02275E104758201120BCB75720018
:100EB700C206C207C20575E103758213120BCB2068
:100EC70007033005FAA205B32275E1047582011202
:100ED7000BCBC205757200D206C20775E102758297
:040EE7000D020BCB22
:1014CF0052582042616420435243005458204552E1
:0214DF005200B9
:100EEB00120BC7E582F804F9E76038740328FAC0DF
:100EFB0000A8028603D000EB30E728740228FCC060
:100F0B0000A8048605D000A70590DF05E0FDA90425
:100F1B00A705747F5BA902F7740428F977007604A0
:100F2B00020EAB22120BC7A882880286031B1B1B67
:100F3B001B9014E175F080C002C003C000120324A3
:100F4B009014E475F080120324D0008682C0001246
:100F5B0003629014EA75F080120324D000E804F9C0
:100F6B008782C0001203629014F075F08012032484
:100F7B00D000740228F98782C0001203629014F625
:100F8B0075F080120324D000740328F98704747F52
:100F9B005CF582C000C0011203629014FC75F080F6
:100FAB00120324D001D000D003D002E7FC30E704B9
:100FBB007C3180027C308C82C002C003C0001202E4
:100FCB002A90150575F08012032490DF3AE0F58224
:100FDB0012036290150C75F08012032490DF39E038
:100FEB00FC53047F7D007E007F008C828D838EF00E
:100FFB00EF1203E290151275F080120324D000D08B
:10100B0003D00274042AF98782C003C00012036262
:10101B0075822012022AD000D003740528FAFC7DB9
:10102B0000C3ED9B501BED2CF88682C002C003C0A1
:10103B0004C005120362D005D004D003D0020D808A
:10104B00E090151975F080C002C003120324D00381
:10105B00D0028A047A00C3EA9B5076EA2CF8868287
:10106B00C002C003C004C00012138DE582D000D0B3
:10107B0004D003D00270188682C002C003C00412D1
:10108B001379E582D004D003D0027003FD80027D7A
:10109B0001ED701BEA2CF88682C002C003C004125B
:1010AB0012D2E582D004D003D0027003FD80027D02
:1010BB0001ED6007EA2CF8860580027D2E8D82C03B
:1010CB0002C003C00412022AD004D003D0020A804B
:1010DB008590151C75F08012032402022DAA82C084
:1010EB0002120BC7A882D0027404251CF6740228C6
:1010FB00F990DF05E0F7740428F9A702740528F5C9
:10110B008222AA82C002120BC7AB82D002EB04F878
:10111B00A60274032BF8A61D120EAB500B90151ED6
:10112B0075F080120324800990152175F08012034D
:10113B002412022D90000A0201F5120BC7A882E6B9
:10114B0024FCF50B740228F98782740328F98702B3
:10115B00747F5AF508740428F98709740528F50A71
:0C116B0002015E120F2F121145020EEB64
:1014E100525800206C656E3D00206473743D0020ED
:1014F1007372633D00207365713D002072657161F7
:10150100636B3D0020727373693D00206C71693D0E
:101511000020747970653D0020220022004F4B00AD
:051521004641494C00A9
:10117700C021C0E0C0F0C082C083C002C003C00469
:10118700C005C006C007C000C001C0D075D000C2EE
:101197008B120263500685C1821202B9D0D0D001EA
:1011A700D000D007D006D005D004D003D002D0831A
:1011B700D082D0F0D0E0D02132AAF174FE5AF5F0F7
:1011C700740245F0F5F143F33C7586C075C222758C
:1011D700C50CD28BD2AA228582C1E58630E1FB53AA
:1011E70086FD22F9E5734574457545766077780085
:1011F700C308E57620E73BE57325E0F573E574332F
:10120700F574E57533F575E57633F576E58295730F
:10121700E5839574E5F09575E9957650D4C3E57641
:1012270013F576E57513F575E57413F574E5731322
:10123700F573E5829573FCE5839574FDE5F0957587
:10124700FEE995764007F98EF08D838C82C3E576AB
:1012570013F576E57513F575E57413F574E57313F2
:10126700F573D8CEE922FB7A20E4FCFDFEFFE58288
:101277002582F582E58333F583E5F033F5F0EB332B
:10128700FB4017DAE98042E5822582F582E5833360
:10129700F583E5F033F5F0EB33FBEC33FCED33FD91
:1012A700EE33FEEF33FFEC9573ED9574EE9575EF26
:1012B70095764013EC9573FCED9574FDEE9575FEF0
:0B12C700EF9576FF438201DABEEB22B8
:0600BA00E478FFF6D8FD1A
:1012D200AA82BA30004009EA24C64004758201227B
:0412E20075820022EF
:100098007900E94400601B7A009015267800759372
:1000A80000E493F2A308B800020593D9F4DAF275D4
:0200B80093FFB4
:1012E60020F71030F6118883A88220F507F6A88328
:1012F60075830022F280F7F022E5828573F0A4C59B
:1013060082C0F08574F0A4D0F025F0C5838573F013
:10131600A42583F58322AA82AB83ACF0AD73AE74A9
:10132600AF758A828B838CF01213B9F87900C002EC
:10133600C003C0048D828E838FF01213B9FA7B002E
:10134600E8C39AF8E99BF988768977D004D003D068
:1013560002E84970178D828E838FF01213B9600CE4
:101366000ABA00010B0DBD00B90E80B685768285DE
:0313760077832258
:1000C0007800E84400600A7900759300E4F309D8E9
:1000D000FC7800E84400600C7900900000E4F0A394
:0400E000D8FCD9FA75
:10137900AA82BA61004009EA2485400475820122E3
:1013890075820022AA82BA41004009EA24A54004D4
:101399007582012275820022AA82AB831213B96079
:1013A90003A380F8C3E5829AF582E5839BF583223E
:0D008B007581771213D5E5826003020086AF
:1013B90020F71430F6148883A88220F507E6A8835D
:1013C90075830022E280F7E49322E02275820022ED
:00000001FF
