:0600000002008B020C4619
:01000B0032C2
:0100130032BA
:01001B0032B2
:0100230032AA
:01002B0032A2
:01003300329A
:01003B003292
:01004300328A
:01004B003282
:01005300327A
:01005B003272
:01006300326A
:01006B003262
:01007300325A
:01007B003252
:03008300020CFB71
:03010E0002008666
:0500860012014D80FE97
:1001110053A0F790006412026690180B75F08012DC
:10012100038C90000BE4F5F012044A90181475F05A
:100131008012038C90DF05E0F5821203CA12029E41
:1001410012029E43A008900064020266120233125A
:10015100025243FF081211C81210751213B57582AD
:1001610001120AF2D2AF12029612011112028D127D
:1001710014E512036C120D6880F5AA82E50924FBCF
:10018100500122E5092509250990018E7302019D7F
:100191000201C10201DE0201EB0201EE901820759D
:1001A100F080C00212038C8508821203CA901827BE
:1001B10075F08012038CD0028A821203CA02029E59
:1001C100A80AAA0B8A031AEB6010868208C002C033
:1001D1000012029BD000D00280EA02029EA80AE629
:1001E100600453A0F72243A008220213CA758201BA
:1001F1001212D5758201121229A80A8682E804F921
:10020100871FC0001211EFD000150B150B740228C7
:10021100F50AA80AAA0B8A031AEB6010868208C0A5
:1002210002C0001211E1D000D00280EA7582000202
:0202310012D5E4
:10180B0050696E6B4F532072002061646472657374
:10181B00732030780041434B203078002066726F84
:05182B006D2030780083
:10023300539ADFA2AFE433F452A82274FC55C9F5F4
:10024300F0740345F0F5C953C9FB43C90880FE5355
:10025300BEFBE5BE30E6FB53C6B8E5C620E6FB436E
:10026300BE0422AA82AB831ABAFF011BC3E49A74A9
:10027300808BF063F08095F0500F7CB07D041CBC44
:0A028300FF011DEC4D70F780DE2234
:0A00E400754300754400C201C2021A
:10028D0090183075F08002038CD2030202A1021582
:10029D00580215B7A2039200300306754200C20141
:1002AD0022C20222AA82AB83ACF030020F8A828B6B
:1002BD00838CF0E543121718C202D322C3223000FB
:1002CD0004A201B322D322E544FA24FB4042EA2AD8
:1002DD002A9002E27302031D0202F10202FE0203E2
:1002ED000B0202F975820712029B802412029E8076
:1002FD001FE542142422F8868212029B8012758219
:10030D000812029B75822012029B75820812029BB5
:10031D0075440022AA82200006D2028A43803D3015
:10032D00010122BA08028011BA0D028005BA7F14AC
:10033D008007D2017544048023E542601F15427584
:10034D004403801874E12542400F754402AB420509
:10035D0042EB2422F8A60280037544010202D43038
:10036D00001C300119E542600DE5422422F87600AB
:10037D0075822212078C75420012028DC20122AACB
:10038D0082AB83ACF08A828B838CF01217EBFD600D
:10039D00188D820ABA00010BC002C003C0041202FC
:1003AD009BD004D003D00280DC22AA82BA0A00506E
:1003BD000674302AF5822274372AF58222AA8274B5
:1003CD00F05AC4540FF582C0021203B712029BD02B
:1003DD0002740F5AF5821203B702029BAA82AB83F5
:1003ED008B058D82C002C0031203CAD003D0028ACE
:1003FD00820203CAAA82AB83ACF0FD8B078C008D01
:10040D00018982C002C003C004C0051203CAD00511
:10041D00D0048C008882C004C0051203CAD005D058
:10042D0004D0038B078F82C003C004C0051203CA1A
:10043D00D005D004D003D0028A820203CA8582453A
:10044D0085834685F047F548D2047E007FCA789AA9
:10045D00793BBE010CBF0009B80006B900030205C7
:10046D00218E728F73887489758545828546838543
:10047D0047F0E548C006C007C000C00112169FAA8C
:10048D0082AB83ACF0FDD001D000D007D006EA4B93
:10049D004C4D6002C20420042C8E728F73887489B7
:1004AD00758545828546838547F0E548C006C007BA
:1004BD00C000C00112169F1203B712029BD001D0CB
:1004CD0000D007D0068E728F73887489758545822A
:1004DD008546838547F0E548C006C007C000C001CA
:1004ED0012161C85824585834685F047F548D00157
:1004FD00D000D007D00675720AE4F573F574F57562
:10050D008E828F8388F0E912169FAE82AF83A8F09A
:10051D00F902045F8545821203B702029BAA827518
:10052D008262C00212029BD002EA30E70C75823162
:10053D00C00212029BD002800A758230C0021202E4
:10054D009BD002EA30E60C758231C00212029BD0BC
:10055D0002800A758230C00212029BD002EA30E599
:10056D000C758231C00212029BD002800A75823056
:10057D00C00212029BD002EA30E40C758231C00237
:10058D0012029BD002800A758230C00212029BD0EB
:10059D0002EA30E30C758231C00212029BD0028058
:1005AD000A758230C00212029BD002EA30E20C754D
:1005BD008231C00212029BD002800A758230C002C5
:1005CD0012029BD002EA30E10C758231C002120298
:1005DD009BD002800A758230C00212029BD002EAC3
:0F05ED0030E00675823102029B75823002029B5C
:021830003E0078
:0300EE0075110089
:1005FC0002023E1511E51124FC5055AA107B007C1B
:10060C00408A828B838CF01217D3AA82850F82C00A
:10061C00021209E3AB82D0028B828A1D120FE6AA6A
:10062C00828A00A910E7600DE510F904F510870225
:10063C00A6020880EE850D821209E3AA82850E823D
:10064C00C0021209E3AB82D0028B1E8A8202100B0D
:10065C002215117402B51125751D01758202120F38
:10066C00E6A882850E82C0001209E3AA82D000A6F9
:10067C0002850D821209E3751E8002100B22E51112
:10068C0024FE5025850D821209E3AA82AB83BA00A1
:10069C0005BB00028008BA010DBB000A800443A010
:1006AC00082253A0F72263A00822151174FF25110C
:1006BC00400122850D821209E3AA82AB837401B535
:1006CC00110280077402B51152803875822AC0025B
:1006DC00C00312029BD003D0028A828B83C002C05B
:1006EC00031203E975823D12029BD003D0028A8269
:1006FC008B83E0F582C002C0031203CA12029ED0A3
:10070C0003D002850E82C002C0031209E3AC82AD95
:10071C0083D003D0028A828B83ECF0227401B51152
:10072C000280077402B51157803D850D821209E3D2
:10073C00AA82AB838A048B05EA4B602A8C127582E1
:10074C002AC004C00512029BD005D0048C828D8374
:10075C001203E975823D12029BA812E2F582120384
:10076C00CA12029E800122850E821209E3AA82AB74
:10077C00838A048B05EA4B60068C13A813ECF222D7
:10078C00AA827511018A0C8A00860208EAFB601A9B
:10079C0074FB25114014BB20F0E814F97700AA1162
:1007AC000511EA240CF9A70080DFAA0C7B007C4021
:1007BC007572327573187574808A828B838CF01203
:1007CC00174EAA82AB83BA0005BB00028003020855
:1007DC004C90183775F08012038C90000BE4F5F0F8
:1007EC0012044A90184075F08012038C90DF05E0DB
:1007FC00F5821203CA12029E90184C75F0801203F7
:10080C008C12029E90186B75F08012038C12029E53
:10081C0090187175F08012038C12029E90188F75CF
:10082C00F08012038C12029E90189A75F0801203BD
:10083C008C12029E9018B875F08012038C02029EE6
:10084C00AA0C7B007C4075726B7573187574808A6A
:10085C00828B838CF012174EAA82AB83BA0006BB34
:10086C0000030205FCAA0C7B007C407572CE7573EC
:10087C00187574808A828B838CF012174EAA82AB07
:10088C0083BA0006BB000302068AAA0C7B007C40DC
:10089C007572D27573187574808A828B838CF01282
:1008AC00174EAA82AB83BA0006BB00030206B6AA97
:1008BC000C7B007C407572D87573187574808A82B5
:1008CC008B838CF012174EAA82AB83BA0006BB0046
:1008DC0003020728AA0C7B007C407572DE75731826
:1008EC007574808A828B838CF012174EAA82AB832C
:1008FC00BA0006BB00030205FFAA0C7B007C407506
:10090C0072E17573187574808A828B838CF0121760
:0F091C004EAA82AB83BA0006BB000302065D221F
:1018320068656C700050696E6B4F532072002061B6
:10184200646472657373203078004A6F6279205441
:101852006166666579203C6A727440686F64676588
:101862007069672E6F72673E007265736574003C23
:1018720078646174617C70646174613E203C61646F
:10188200647231363E205B76616C385D006C656453
:10189200203C626F6F6C3E007478203C6473743835
:1018A2003E203C736571383E203C747970383E208E
:1018B2003C7374723E0074656C656C6564203C64B4
:1018C2007374383E203C626F6F6C3E006C6564003E
:1018D200786461746100706461746100747800748A
:0718E200656C656C65640094
:10092B00AA82C3EA648094E140047B57801EC3EA29
:10093B00648094C140047B378012C374B98AF0631E
:10094B00F08095F040047B3080027B00EAC39BF57E
:10095B0082228582167B007C00A816860508ED6036
:10096B00050C8C0380F5ECFB20E00AECC313FCC3F5
:10097B00E5159C5004758200227D00C3ED9B5055FC
:10098B00EDC3132514F8ED2516F98782C003C004B7
:10099B00C005C00012092BAE82D000D005D004D008
:1009AB0003EEC454F0FE8D077A000FBF00010AEF6F
:1009BB002516F98782C003C004C005C006C000120B
:1009CB00092BAA82D000D006D005D004D003EA4E62
:1009DB00F60D0D80A68C822285821775180A751C60
:1009EB00007D00A817860608EE60050D8D1C80F5AE
:1009FB008D1C7E007F00BD0200E433F51BBD0300A0
:100A0B00E433FD751900C3E519951C4003020AC0B8
:100A1B00E5192517F88603EE4F7043E51960057449
:100A2B0001B51911BB620EE51B6004900000227525
:100A3B001802020ABBE5197011BB680EE51B6004B6
:100A4B0090000022751810020ABB7401B5190FBB78
:100A5B00780CED60049000002275181080528B8288
:100A6B00C005C006C00712092B85821AD007D00615
:100A7B00D005C3E51A64808518F063F08095F050BB
:100A8B002BC005E518F5723395E0F5738E828F83D5
:100A9B00C005121731AB82AA83D005E51AFD339539
:100AAB00E0FCED2BFEEC3AFFD00580049000002219
:0A0ABB000519020A118E828F8322B2
:0900F100756900C205C206C207D0
:100AC50075824922AA827BFF90DF3BE0FCB50202DA
:100AD5008014EB6011900001C002C003120266D0C1
:100AE50003D0021B80E2EB7002C322D322AA8290BC
:100AF500DF0074D3F090DF017491F090DF0274FF92
:100B0500F090DF037404F090DF047405F090DF05C6
:100B1500E4F090DF06F090DF07740CF090DF08E456
:100B2500F090DF097421F090DF0A7465F090DF0B17
:100B3500746AF090DF0C742DF090DF0D743BF0902B
:100B4500DF0E7413F090DF0F7422F090DF1074F84D
:100B5500F090DF117462F090DF127407F090DF13EC
:100B65007430F090DF147418F090DF15741DF09058
:100B7500DF16741CF090DF1774C7F090DF18E4F0EF
:100B850090DF1974B0F090DF1A74B6F090DF1B7423
:100B950010F090DF1C74EAF090DF1D742AF090DFEE
:100BA5001EE4F090DF1F741FF090DF237488F0902F
:100BB500DF247431F090DF257409F090DF27E4F02D
:100BC50090DF28F090DF29F090DF2AF090DF2BE40A
:100BD500F090DF2CF090DF2DF090DF2E7450F09028
:100BE500DF2FE4F090DF30F090DF31F090DF3674E6
:100BF50001F090DF377403F090DF38E4F090DF39CF
:100C0500F090DF3A7480F090DF3B7401F090DF3CA8
:100C1500E4F090DF3D7494F090DF2E74C2F090DF25
:100C250003E04402F090DF05EAF075E900439A011C
:100C3500D2A84391F175E104758201120AC9020D2A
:100C4500CEC0E0C0F0C082C083C002C003C004C0F3
:100C550005C000C0D075D00090DF3BE0FABA132C78
:100C6500AA497B000ABA00010BAC697D00C3EC9A66
:100C7500ED64808BF063F08095F0500CAA690569EE
:100C8500EA2449F886D98059D205805590DF3BE0A2
:100C9500FABA0D4DE5696022AA497B000ABA00013E
:100CA5000BAC697D00C3EC9AED64808BF063F0803A
:100CB50095F0501274E02569400CAA690569EA248B
:100CC50049F8A6D9801BAA497B000ABA00010BACDA
:100CD500697D00ECB50208EDB50304D2078002D2A8
:100CE50005D0D0D000D005D004D003D002D083D019
:100CF50082D0F0D0E032C0E0C002C003C004C0051D
:100D0500C0D075D000539BFCE5E930E427AA497BA8
:100D1500000ABA00010BAC697D00ECB5020EEDB519
:100D2500030A75E104756900D207800875E1047549
:100D35006900D205E5E920E70AE5E920E605E5E9E8
:100D450030E50875E104756900D205E5E930E00391
:100D550075690075E900D0D0D005D004D003D00264
:100D6500D0E032300625300503020DCE3007349031
:100D7500DF39E0FA30E70512106C800C9018E97540
:100D8500F08012038C12029E020DCE30050F9018D2
:100D9500F475F08012038C12029E120DCE300703FB
:100DA500020DCE2275E104758201120AC97569002A
:100DB500C206C207C20575E103758213120AC9206E
:100DC50007033005FAA205B32275E1047582011205
:100DD5000AC9C205756900D206C20775E1027582A6
:040DE5000D020AC928
:1018E90052582042616420435243005458204552C3
:0218F90052009B
:100DE900120AC5E582F804F9E76038740328FAC0E5
:100DF90000A8028603D000EB30E728740228FCC063
:100E090000A8048605D000A70590DF05E0FDA90428
:100E1900A705747F5BA902F7740428F977007604A3
:100E2900020DA922120AC5A882880286031B1B1B70
:100E39001B9018FB75F080C002C003C00012038C20
:100E49009018FE75F08012038CD0008682C00012C3
:100E590003CA90190475F08012038CD000E804F9D4
:100E69008782C0001203CA90190A75F08012038C98
:100E7900D000740228F98782C0001203CA901910A1
:100E890075F08012038CD000740328F98704747FED
:100E99005CF582C000C0011203CA90191675F08072
:100EA90012038CD001D000D003D002E7FC30E70454
:100EB9007C3180027C308C82C002C003C0001202E7
:100EC9009B90191F75F08012038C90DF3AE0F58230
:100ED9001203CA90192675F08012038C90DF39E04D
:100EE900FC53047F7D007E007F008C828D838EF011
:100EF900EF12044A90192C75F08012038CD000D09F
:100F090003D00274042AF98782C003C0001203CAFD
:100F190075822012029BD000D003740528FAFC7D4B
:100F290000C3ED9B501BED2CF88682C002C003C0A4
:100F390004C0051203CAD005D004D003D0020D8025
:100F4900E090193375F080C002C00312038CD003FE
:100F5900D0028A047A00C3EA9B5076EA2CF886828A
:100F6900C002C003C004C0001217BFE582D000D080
:100F790004D003D00270188682C002C003C00412D4
:100F890017ABE582D004D003D0027003FD80027D47
:100F990001ED701BEA2CF88682C002C003C004125E
:100FA9001704E582D004D003D0027003FD80027DCE
:100FB90001ED6007EA2CF8860580027D2E8D82C03E
:100FC90002C003C00412029BD004D003D0020A80DD
:100FD9008590193675F08012038C02029EAA82C090
:100FE90002120AC5A882D0027404251DF6740228CB
:100FF900F990DF05E0F7740428F9A702740528F5CC
:101009008222AA82C002120AC5AB82D002EB04F87E
:10101900A60274032BF8A61E120DA9500B901938BD
:1010290075F08012038C800990193B75F0801203CA
:101039008C12029E90000A020266120AC5A882E674
:1010490024FCF50B740228F98782740328F98702B6
:10105900747F5AF508740428F98709740528F50A74
:0C10690002017B120E2D121043020DE953
:1018FB00525800206C656E3D00206473743D0020CF
:10190B007372633D00207365713D002072657161D8
:10191B00636B3D0020727373693D00206C71693DF0
:10192B000020747970653D0020220022004F4B008F
:05193B004641494C008B
:101075002253FD3D53FE034380C24390FC90000183
:101085001202667A007B00BB0800400302119AEB4E
:10109500FC24F84057EB2B2B9010A1730210B902DA
:1010A50010BB0210C30210CB0210D30210DB0210DA
:1010B500E30210EB803643FD025380FD802E43FE94
:1010C500045390FB802643FE085390F7801E43FE91
:1010D500105390EF801643FE205390DF800E43FEA1
:1010E500405390BF800643FE8053907FAD807E00C5
:1010F500EDF4FDEEF4FEED30E1027C01AD907E00F5
:10110500EDF4FDEEF4FEED30E2027C02AD907E00E2
:10111500EDF4FDEEF4FEED30E3027C03AD907E00D0
:10112500EDF4FDEEF4FEED30E4027C04AD907E00BE
:10113500EDF4FDEEF4FEED30E5027C05AD907E00AC
:10114500EDF4FDEEF4FEED30E6027C06AD907E009A
:10115500EDF4FDEEF4FEED30E7027C07AD807E0098
:10116500EDF4FDEEF4FEED30E6027C08AD807E0088
:10117500EDF4FDEEF4FEED30E7027C09ECB503027B
:10118500800DEA75F00AA42C90194093F582220B84
:101195008B0202108C75820022121076AA82C00280
:1011A500121076AB82D002EAB503028007121076E0
:1011B500AA8280EA53FD3D53FE034380C24390FC5F
:0311C5008A8222F9
:1019400000006F6B6E6D017000000000796763200E
:101950003C2C033E000000717765727475690000CD
:10196000000061736466686A0000000000827A7893
:1019700076620000000000008384850800000000FB
:10198000000000025E8700000000000000000D6CF7
:1011C80043F32875860075C2AA75C530228582C189
:1011D800E58630E1FB5386FD22D2820211D5AA8230
:1011E800C2828A820211D5AA8274B0251FF582C0F4
:1011F800021211E6D002740F5AF582C0021211E6EB
:10120800D002EAC4540FFA740F5A2410F58202115E
:10121800E6AA82743F5AF5F0744045F0F58202114F
:10122800E6AA8274015AF5F074A645F0F582021117
:10123800E6AA827B00BB090050288B1F758200C07C
:1012480002C0031211EFD003D0027C848A82C0024C
:10125800C003C0041211E1D004D003D002DCED0BAE
:1012680080D32243FD1443FE02C291900001120272
:1012780066D2917582011212D57582E21211E67555
:1012880082241211E67582811211E67582601211AC
:10129800E67582E61211E67582001211E675822F54
:1012A8001211E67582A11211E67582AF1211E67568
:1012B80082A41211E6758200121229758200121298
:1012C800197582FF1212397582000212D5E582FA69
:0612D800B4010092842223
:10199000FFFFFFFFF7E3C1E3FFAB55ABFFE0DB0069
:1019A000E0FA06D7FDFA0AAFF0F707AFFFE1EDE185
:1019B000FFDBD1DBF0FD0B70F8F7E80FF7F7F0FF76
:1019C000F7F707FFFFFF07F7FFFFF0F7F7F700F75D
:1019D000FFFDFDFDFFFBFBFBFFF7F7F7FFEFEFEF71
:1019E000FFDFDFDFFFFF00F7F7F700FFEFEFE0EFCC
:1019F000EFEF0FEFFFFF00FFFFB7AB9DFF9DABB712
:101A0000FDC1FDC1EBCBE3E9DB81EACEFFFFF7FFD0
:101A1000FFFFFFFFFFA1FFFFF9FFF9FF81DB81FF60
:101A2000DB34CBFF9DE7B9FFC59AA5FFFFF9FFFFA8
:101A3000FFC3BDFFBDC3FFFFD5E3D5FFF7C1F7FF70
:101A40007F9FFFFFF7F7F7FFFF9FFFFF9FE7F9FF7C
:101A5000C3B5C3FFBB81BFFF9BADB3FFDDB5C9FFFE
:101A6000E7EB81FFD1B5CDFFC3B5CDFFFD8DF1FF14
:101A7000CBB5CBFFB3ADC3FFFFDBFFFFBFDBFFFF8A
:101A8000EFD7BBFFEBEBEBFFBBD7EFFFFBADF3FFFC
:101A9000C3BDB3FF83ED83FF81B5CBFFC3BDDBFFC8
:101AA00081BDC3FF81B5B5FF81F5F5FFC3BDCBFF98
:101AB00081F781FFBD81BDFFDFBFC1FF81F789FFD6
:101AC00081BFBFFF81FB81FF83E7C1FFC3BDC3FFB0
:101AD00081EDF3FFC39DA3FF81ED93FFDBB5CBFF4A
:101AE000FD81FDFF81BF81FFC1BFC1FF81DF81FF9C
:101AF00089F789FFF987F9FF9DA5B9FFFF81BDFF30
:101B0000F9E79FFFBD81FFFFFBFDFBFF7F7F7F7F2D
:101B1000FDFBFFFFDBAB87FF81B7CFFFC7BBBBFF81
:101B2000CFB781FFC7ABA7FFF783F5FF675B83FFE5
:101B300081F78FFFB785BFFF7F7785FF81EF97FF25
:101B4000FF81FFFF83F783FF83FB87FFC7BBC7FFCF
:101B500003DBE7FFE7DB03FF87FBFBFFB7ABDBFF45
:101B6000F781F7FF83BF83FFC3BFC3FF83DF83FF1B
:101B700093EF93FF635F83FF9BABB3FFF7C9BEFF98
:101B8000FF88FFFFBEC9F7FFFBF3F7FFFFFFFFFF73
:1000FA00756A00756B00756C00756D00C208C209DF
:04010A00C20AC20B58
:1012DE00AA82758201C0021212D5758201121229DC
:1012EE00D002856E1F8A821211EFAA6FAB70AC719D
:1012FE008A828B838CF01217EBF582C002C003C07A
:10130E00041211E1D004D003D00274012AFDE43B93
:10131E00FE8C078D828E838FF01217EBF582C00242
:10132E00C003C0041211E1D004D003D00274022A0B
:10133E00FDE43BFE8C078D828E838FF01217EBF54A
:10134E0082C002C003C0041211E1D004D003D00247
:10135E0074032AFAE43BFB8A828B838CF01217EB20
:10136E00F5821211E17582000212D5300A12756FE4
:10137E003875701A757180856C6E856B820212DEFF
:10138E00300912756F4475701A757180856C6E8593
:10139E006B820212DE756F0C75701B757180856C19
:1013AE006E856B820212DE12126BD20BC209C20A5A
:1013BE00756A00756B00756C00021379C20B021210
:1013CE006BAA82BA2C030214DABA610302149ABA17
:1013DE0062030214CEBA63030214C6BA6403021483
:1013EE00A2BA650302147ABA66030214A6BA670398
:1013FE000214AABA68030214AEBA690302148EBAB2
:10140E006A030214B2BA6B030214B6BA6C03021466
:10141E00BABA6D030214D6BA6E030214D2BA6F02B0
:10142E008062BA70028061BA71028038BA7202802C
:10143E003FBA7302805ABA74028039BA7502803C80
:10144E00BA76030214CABA7702801DBA7803021460
:10145E00C2BA79028022BA7A028055BA8303021484
:10146E00DE0214E2758231227582322275823322B7
:10147E00758240227582232275822422758226224D
:10148E0075822D2275822B2275823D227582342221
:10149E00758235227582362275825C2275825F22B4
:1014AE0075823A2275823B2275822222758227220C
:1014BE0075823722758238227582392275822822EA
:1014CE00758229227582212275822E2275823F22F3
:1014DE00758230228A8222200B012212119EE58211
:1014EE00FAB56D01228A6D300A098A821213CFAACB
:1014FE0082801130090EBA61004009EA2485400449
:10150E0074E02AFABA0102802DBA02028028BA03C8
:10151E00028023BA82028014BA83028019BA84022E
:10152E00800FBA8502800FBA870D800AB2090213A6
:10153E0079B20A02137922BA000122C0021202CB3A
:10154E00D00250058A8202032122AA82200B012298
:10155E00BA081D756F1075701A757180856C6E8561
:10156E006B821212DE156B156B156B156B021379F0
:10157E00BA070122EA247F50027A00EA75F004A429
:10158E002490FA741935F0FB8A6F8B707571808513
:10159E006C6E856B821212DEE56B2404F56BC394C0
:1015AE008040031215B7021379200B0122756F10BC
:1015BE0075701A757180856C6E856B821212DE7570
:1015CE006B00056C74F8256C5005D208756C0030F4
:1015DE00083B7A00BA2000501CEA2A25E0F58275F5
:1015EE006F1075701A757180856C6EC0021212DEE6
:1015FE00D0020A80DF7408256AF56A75820112121C
:10160E00D5856A821212197582000212D522F9E569
:10161E007245734574457560777800C308E575208B
:10162E00E73BE57225E0F572E57333F573E5743348
:10163E00F574E57533F575E5829572E5839573E579
:10164E00F09574E9957550D4C3E57513F575E57489
:10165E0013F574E57313F573E57213F572E5829560
:10166E0072FCE5839573FDE5F09574FEE995754082
:10167E0007F98EF08D838C82C3E57513F575E574CD
:10168E0013F574E57313F573E57213F572D8CEE99D
:10169E0022FB7A20E4FCFDFEFFE5822582F582E541
:1016AE008333F583E5F033F5F0EB33FB4017DAE9DE
:1016BE008042E5822582F582E58333F583E5F033BA
:1016CE00F5F0EB33FBEC33FCED33FDEE33FEEF3395
:1016DE00FFEC9572ED9573EE9574EF95754013ECE6
:1016EE009572FCED9573FDEE9574FEEF9575FF43C7
:0616FE008201DABEEB22BE
:0600BA00E478FFF6D8FD1A
:10170400AA82BA30004009EA24C640047582012244
:0417140075820022B8
:100098007900E94400601B7A00901B907800759302
:1000A80000E493F2A308B800020593D9F4DAF275D4
:0200B80093FFB4
:1017180020F71030F6118883A88220F507F6A883F1
:1017280075830022F280F7F022E5828572F0A4C565
:1017380082C0F08573F0A4D0F025F0C5838572F0DF
:10174800A42583F58322AA82AB83ACF0AD72AE7375
:10175800AF748A828B838CF01217EBF87900C00281
:10176800C003C0048D828E838FF01217EBFA7B00C2
:10177800E8C39AF8E99BF988758976D004D003D034
:1017880002E84970178D828E838FF01217EB600C78
:101798000ABA00010B0DBD00B90E80B685758285A9
:0317A80076832223
:1000C0007800E84400600A7900759300E4F309D8E9
:1000D000FC7800E84400600C7900900000E4F0A394
:0400E000D8FCD9FA75
:1017AB00AA82BA61004009EA2485400475820122AD
:1017BB0075820022AA82BA41004009EA24A540049E
:1017CB007582012275820022AA82AB831217EB600D
:1017DB0003A380F8C3E5829AF582E5839BF5832208
:0D008B00758176121807E582600302008679
:1017EB0020F71430F6148883A88220F507E6A88327
:1017FB0075830022E280F7E49322E02275820022B7
:00000001FF
